:04000000B9EF01F063
:1000080000C016F001C015F0F2A42ED0F2AA2CD030
:10001800F294322A30C03DF0080E3F6E010E3E6E5B
:10002800070E3D14006E460E0024F66E040EF76EA1
:10003800000EF722000EF86E000EF8220900F5CF28
:1000480001F03250015C05E23E1C006E0050821641
:1000580002D03E5082123E363E902F503D263F063B
:100068003F52DEE11F0E32169EA202D09E926DD83C
:0A00780016C000F015C001F01100E1
:0A00820017C0E9FF18C0EAFF1200E2
:10008C0006003590F8DFFDCFECFFFECFECFFFFCF85
:0E009C00ECFF349634A8349A2EB0348A120049
:0600AA002E6AEFDF1200D8
:1000B000E8DFFDCFECFFFECFECFFFFCFECFF348697
:0400C0000600120024
:1000C400359ADDDF3B5203E03498EF98120034B8E0
:0E00D40004D034AA02D0358A120006001200B1
:1000E200349A17C0E1FF18C0E2FFE6983B503C107B
:1000F2002EE0FF0E3B18006E3C50FF0A016E00C05E
:100102003BF001C03CF0010E0024026E000E012003
:10011200036E02C03BF003C03CF017C000F018C0F1
:1001220001F0050E0024E16E000E0120E26E02C015
:10013200E6FF03C0E6FF17C0E1FF18C0E2FFE68654
:1001420017C0E1FF18C0E2FFE68834883486120047
:1001520019A80ED0010E1E24006E000E1F20016E83
:1001620000C01EF001C01FF01E501F10D8B4199815
:1001720020A80ED0010E2524006E000E2620016E4E
:1001820000C025F001C026F025502610D8B42098D2
:1001920027A80ED0010E2C24006E000E2D20016E19
:1001A20000C02CF001C02DF02C502D10D8B427988F
:0201B200120039
:1001B4003592190E016E000E026E2E6A01C0E9FF1F
:1001C40002C0EAFFEECF00F000BC28D0368C3686A1
:1001D400010E0124E16E000E0220E26E37C0E6FF3C
:1001E40038C0E6FF39C0E6FF3AC0E6FF050E012439
:1001F400E16E000E0220E26EE66AE66A01C0E1FFEB
:1002040002C0E2FF36C0E6FF0250181802E11750A0
:10021400011802E136C034F035921200070E0126AF
:10022400000E02222E2A030E2E5CC8E33582120031
:10023400806A816A010E926E010E936EF19E826A4B
:10024400946AC10EC26E0E0EC16EC10ED56E250E1D
:10025400CA6EF90ECB6EF26AF28AF28C9D8212009B
:10026400356A190E006E000E016E0E0E0024176E14
:0E027400000E0120186E199C209C279C120081
:10028200316A31C001F0312A0150335C08E3010EBA
:100292003B6E000E3C6E24DF0ADF0000F2D73050C6
:0C02A200010F006E00C030F0EBD712001E
:1002AE00E9DEEECF34F00500EE50FD6EEE50FE6E40
:0802BE00EE50FF6E1200120069
:1002C600F1DE000081B002D0D88001D0D890000EB7
:1002D600D8B0010E3B6E3B50000A000ED8A4010EAA
:1002E6003B6EEDDE280E3B6E000E3C6EF7DEDDDE6D
:1002F600000081B0E5D72F5000082F6ED3DE000036
:10030600000E81B0010E3B6E3B50000A000ED8A4D1
:10031600010E3B6ED4DE280E3B6E000E3C6EDEDE1A
:0C032600C4DE000081A0EAD7CBD7120093
:10033200C70EC216C284B8DE0000C2B402D0D88092
:1003420001D0D890000ED8B0010E3B6E3B50000A8F
:10035200000ED8A4010E3B6EB4DEC4CF33F0640E9F
:100362003B6E000E3C6EBCDEA2DE0000E1D7120046
:1003720060DF77DF366A820E376E020E386E000E4D
:10038200396E000E3A6E15DF366A320E376E030E84
:10039200386E000E396E000E3A6E0BDF366AC60EEC
:1003A200376E020E386E000E396E000E3A6E01DFA5
:1003B200306A010E2F6EF28ED0BEF28C2E6A190EAA
:1003C200006E000E016E0E0E0024026E000E012061
:1003D200036E0350185C02E10250175C05E3190E2C
:1003E200176E000E186E0AD0070E1724006E000E4C
:1003F2001820016E00C017F001C018F017C0E9FF05
:1004020018C0EAFF010E006E340EE16E000EE26EBD
:10041200EECFE6FF0006FCE134AC03D034BE01D0DF
:1004220001D00ED034A803D034BA01D009D03EDFB7
:1004320027DED70EEF16280E3414006E0050EF128E
:04044200BDD7FFD74C
:080446001F140B070402010062
:020000040030CA
:0D000100220F0EFFFF81FF0FC00FE00F4028
:00000001FF
