:020000000F2AC5
:10000800FF00030E8301BC000A08BB008A017008C8
:10001800A1007108A0000B1D43288B1E43280B115B
:10002800A20A2808C2000830C4000130C300073003
:100038004205F0000030F1004B30F00702300318A1
:10004800013EF1077008A3007108A40008228A1174
:100058000A12F10022087102031837284309F00038
:1000680070088705392843088704C30D43103A08E8
:10007800C207C4034408031D1B281F30A2058C1C9B
:1000880047288C109F212108F0002008F1003B0828
:0C0098008A003C0E8300FF0E7F0E090062
:1000A4008312031326088400003000388313031DD1
:0400B40083170800A6
:1000B8008301F0008A10F01B8A14040883120313CA
:1000C800A700522002308407700880000403F00063
:1000D80070088400270880000403F000700884007A
:1000E80080158A1C7E288011001A7B2880120A1C21
:0600F8007E2880160800BE
:1000FE005220801200124008410403199F28FF303D
:10010E00C006FF30C106C00A0319C10A003000380C
:10011E008313031D83172608F00003307007840035
:10012E00400880004108840A800052200016801585
:02013E000800B7
:1001400083120313B912522040080319AB2800127E
:100150000130F0000800001AB328801EB328B91639
:0A0160000130F0000800F001080073
:10016A0000308A000A10BC30840080305C28831278
:10017A0003130618C2280314C328031000300318F7
:10018A000130C0004008003A013003190030C000B5
:10019A00A0207008031DD22808002830C0000030B3
:1001AA00C1007F2000308A00DD30840000305C28E6
:1001BA000618B5283A08003CBA0000308A000A102E
:1001CA00E930840080305C28003006180130C00015
:1001DA004008003A013003190030C000A02070081E
:1001EA00031DF82808002830C0000030C1007F2015
:1001FA0000308A000330840001305C28061CE228A3
:04020A00B52808000B
:10020E0083120313B910BD012930F100A70100308C
:10021E0000388313031D8317710884000008F00053
:10022E00701B2F293D17BD15710A84003E088000F2
:10023E003F08840A80000330710784008001840A1D
:10024E008001710884003D088000B91083130800F6
:10025E000530F107A70A03302702031C0E29B91433
:04026E0083130800EE
:100272005220023084071F3000058A000403F00078
:0C0282007008840000088403820008005B
:10028E008312031385018601013083168500013028
:10029E0086008113831287018316870183128801DA
:1002AE00831688018312890183168901C130831256
:1002BE009F000E3083169F0041308100253083123F
:1002CE009200F930831692008B018B160B178C144B
:0202DE00080016
:1002E000C730831203139F051F1500308A000A10C0
:1002F0007C30840081305C281F19802903148129F7
:100300000310003003180130C0004008003A0130EB
:1003100003190030C000A0207008031D90290800B8
:100320001E08B8006430C0000030C1007F200030DB
:0E0330008A009D30840001305C28702908008E
:10033E0083120313291EB4292C08013EF00000304D
:10034E000318013E2D07F1007008AC007108AD00D6
:10035E002C082D04031DB42929122E1EC72931087D
:10036E00013EF00000300318013E3207F100700824
:10037E00B1007108B20031083204031DC7292E12D4
:10038E00331EDA293608013EF00000300318013E14
:10039E003707F1007008B6007108B7003608370449
:0803AE00031DDA2933120800D7
:1003B60083120313B9018A1FE1295C2029308312B5
:1003C6000313F0000A307007A60029132E13331307
:0203D60008001D
:1003D80083120313A5012508F100A50A7108380244
:1003E800031C022A0130C0000030C1007F20003009
:1003F8008A000130840002305C28EF29280AF000C6
:080408007008A800EC290800AF
:0E0410008312031324088A00230882000800C8
:10041E004721DB21BD01EC30BE000130BF000721BA
:10042E00BD017030BE000130BF000721BD01B530E7
:10043E00BE000030BF000721A8010130BA008B17A3
:10044E00A7012930F0000A307007F100710826026A
:10045E00031C342A2930A600392A05302607F0005D
:10046E007008A6005220001F3F2A801B3F2A402AF8
:10047E00492A001E452A801A452A492A3921830114
:08048E0002308A00272A4A2AE5
:100496001F3414340B34073404340234013400346A
:02400E004A2F37
:00000001FF
