:100000000DC026C025C024C0CBC022C022C020C045
:100010001FC01EC01DC01CC01BC01AC011241FBEA3
:10002000CFEDCDBF10E0A0E6B0E0E6EFF5E003C015
:10003000C89531960D92A836B107D1F710E0A8E621
:10004000B0E001C01D92AB38B107E1F7CED0D1C20C
:10005000D7CF1F920F920FB60F9211242F933F9379
:100060004F935F936F938F939F93EF93FF932091A1
:1000700069002F5F50916A0060916B0031E048E0A9
:10008000E52FF0E0E770F070E05AFF4F80818217B3
:1000900028F492B3832F8095892302C082B3832BE7
:1000A00082BB415019F0330F560FEACF2F712093C6
:1000B0006900FF91EF919F918F916F915F914F91A7
:1000C0003F912F910F900FBE0F901F90189517BA68
:1000D0008FEF88BB14BA85BB81BB12BA17B887EE05
:1000E00086B982E083BF81E08EBD80E49FE19BBD45
:1000F0008ABD82E489BF0895E4E2F0E080819181C5
:10010000969587959695879580936C0084E690E008
:10011000A2D1DED0F1CF1092680004C081E090E05F
:100120009AD1D6D08091680090916C008F5F8093B7
:1001300068008150981790F780916A008F5F8093D4
:100140006A00E9CF1ED1E3E3F0E0808190E096956C
:10015000879521E030E08227932781702AD188E2B9
:1001600090E079D1B5D0E3E3F0E0808181FDEACF82
:1001700080916B00819580936B0003D1E3E3F0E005
:10018000808190E096958795817013D188E290E008
:1001900062D19ED0E3E3F0E0808181FFEECFD2CF49
:1001A0001F920F920FB60F9211242F933F934F93EC
:1001B0005F936F937F938F939F93AF93BF93EF93CF
:1001C000FF931DBC1CBCD8D1FF91EF91BF91AF91A3
:1001D0009F918F917F916F915F914F913F912F915F
:1001E0000F900FBE0F901F9018951F9317BA8FEFA7
:1001F00088BB14BA85BB81BB12BA17B887EE86B923
:1002000082E083BF11E01EBD80E49FE19BBD8ABDFB
:1002100082E489BF56D180E06BE870E06AD180E06B
:100220006CE770E066D180E062EA70E062D1109223
:100230006A0010936B007894E0917000F091710067
:100240001092890080E0E038F80718F0E2E7F0E06B
:1002500001C03796808180936F0080916F0086FF88
:10026000EFCF80916F0087FDEBCFF0937100E093AB
:10027000700080916F0084FF04C080916F0085FF43
:10028000DBCFCF93DF9311D0A0917000B0917100BC
:100290008FB7F8947C91777D60916F006872762BB0
:1002A0007C938FBFDF91CF91C7CF8DB780936D00C7
:1002B00010926E00A0917000B09171006D916093EA
:1002C0006F006D916F936D916F93CD91DD91089556
:1002D000A0917000B09171006D916F917F917D93AD
:1002E0006D93CD93DD9380916F00886080936F0054
:1002F0008FB780938900F89480916D008DBF8091B5
:1003000089008FBF08956F917F918FB78093890087
:10031000F89480916D008DBF809189008FBF089502
:100320006F917F91809187008E7F80938700A0914D
:100330007000B09171006D916F917F917D936D937D
:10034000CD93DD937F936F9380916F00877F809330
:100350006F0080916F0084FD05C080916F008F7DDC
:1003600080936F008091890080FF05C080916F00AD
:10037000806280936F0008958FEF80938900D0DFB3
:10038000089510928900CCDF08958FB7F894807893
:1003900008958FB7807880938A00F894089587FF36
:1003A00001C07894089580918A0087FF01C07894F5
:1003B0000895909187009F7D90938700882369F02E
:1003C00080916F008F7E80936F00A0917000B0913C
:1003D00071006C916F7E6C93089580916F0084FD25
:1003E0000AC080916F0085FF06C0809187008062FF
:1003F0008093870008956F917F918FB780938900D4
:10040000F89480916D008DBF809189008FBF089511
:10041000909187009F7D90938700882369F0809159
:100420006F008F7E80936F00A0917000B09171007B
:100430006C916F7E6C930BC080916F0084FD09C03E
:1004400080916F0085FF05C090629093870081E0E6
:10045000089580E00895282F392F8FB780788093F2
:100460008A00F894E0917000F091710090819F7D76
:10047000908390819F7E908387FF01C0789421159F
:100480003105F1F088279927821B930B968385838A
:100490009FB7907890938A00F894808188608083D9
:1004A00080818061808397FF01C0789480916F0084
:1004B000806180936F0080916F00886080936F00EF
:1004C000089510928700E0E8F0E0F0937100E09367
:1004D0007000AE2FBF2F1E978C918F7B8C93379718
:1004E00080818F7B8083809180008F7B80938000D0
:1004F0000895DF93CF930F92CDB7DEB789838091B4
:1005000087008D7F8093870010928900E2E7F0E0FA
:10051000808186FD1DC0898180648983898188608E
:100520008983728361831682158229812083809159
:10053000700090917100E817F90711F420936F0093
:1005400080E090E894838383809187008D7F0EC044
:10055000809189008F5F809389008091890083302A
:1005600010F43796D5CF8091870082608093870002
:100570000F90CF91DF9108958091720084FF10C099
:100580008091770090917800019690937800809305
:100590007700892B29F4809172008F7E80937200FE
:1005A0008091790084FF10C080917E0090917F003F
:1005B000019690937F0080937E00892B29F480918F
:1005C00079008F7E809379008091800084FF10C035
:1005D000809185009091860001969093860080938B
:1005E0008500892B29F4809180008F7E8093800084
:0605F0000895F894FFCF0E
:0805F6001F140B0704020100B1
:00000001FF
