:020000040000FA
:06000000DCEF02F012002B
:0600080098EF00F0120069
:06002A000100E4050000E6
:080030008A0000000800000036
:0800380063D81DEC02F0580E24
:10004000E66E020EE66EE66A26EC02F0E552E55236
:10005000E552F80EE66E020EE66EE66A26EC02F057
:10006000E552E552E5528C0EE66E020EE66EE66A49
:1000700026EC02F0E552E552E5520001936B0001D7
:10008000010E946FF28ED0BEF28C136A0C0E155CCA
:10009000000E165805E3000E156E000E166E04D005
:1000A000060E1526000E1622BFEC01F0EF50400B95
:1000B00003E0EF50800B01E021D0EF50100B04E083
:1000C000EF50200B01E11AD0030EC3EC01F00ED06B
:1000D000EF5004E0D950E76EE128D96EE150146E7C
:1000E000ED50E126ED50FA6EED50F96EF1DF14504F
:1000F000E15C04E01450E16EE750D96EC6D71200FF
:10010000806A816A010E926E010E936EF19E826A80
:10011000946AC10EC26E0E0EC16EC10ED56E250E52
:10012000CA6EF90ECB6EF26AF28AF28C9D821200D0
:10013000DACFE4FFE2CFDAFFE9CFE4FFEACFE4FF72
:10014000F6CFE4FFF7CFE4FFF5CFE4FFF3CFE4FF12
:10015000F4CFE4FFFACFE4FF00EE17F0020EE8045C
:1001600003E3EECFE4FFFBD700EE19F0010EE80445
:1001700003E3EECFE4FFFBD7E652D9CFE6FFE1CFB2
:10018000D9FF030EE126F250040B34E0F250200BAD
:1001900031E0F2940001952B93C0DFFF080EF36E5F
:1001A000020EF3CFDBFFDE52010EDD6E070EDF1411
:1001B000EA6A8A0FE96E000EEA22EF500001D88049
:1001C000955504E2010EDB1C821603D0010EDB50B4
:1001D0008212010EDBCFF3FFF39EF346010EF3CF45
:1001E000DBFF00019451DF26020EDB06DFE11F0E6C
:1001F000000195179EA203D09E927CEC02F0030EA4
:10020000E15C02E2E16AE552E16EE552E7CFD9FF37
:10021000E55200EE19F0010EE80403E3E5CFEDFF2F
:10022000FBD700EE18F0020EE80403E3E5CFEDFF84
:10023000FBD7E5CFFAFFE5CFF4FFE5CFF3FFE5CF3E
:10024000F5FFE5CFF7FFE5CFF6FFE5CFEAFFE5CF16
:10025000E9FFE5CFDAFF11000001966B000196512E
:10026000962B196E00019251D88019540BE3010EA0
:10027000E66EE66AC7EC01F0E552E55299EC01F052
:100280000000ECD70001932BE7D71200A7EC01F098
:1002900000008150010B02E0000E01D0010E136E30
:1002A0000DEC02F0280EE66EE66AC7EC01F0E552AE
:1002B000E55299EC01F0000081B0E8D794C094F0C9
:1002C0000001946DA7EC01F000008150010B02E1E8
:1002D000000E01D0010E136E0DEC02F0280EE66E3A
:1002E000E66AC7EC01F0E552E55299EC01F0000036
:1002F00081A0E8D7CBD71200C70EC216C284A7ECE4
:1003000001F00000C250040B02E0000E01D0010E0B
:10031000136E0DEC02F0C4CF92F0640EE66EE66A46
:10032000C7EC01F0E552E55299EC01F00000E4D78A
:020330001200B9
:0E033200030E28D81450E15CED6EFE50ED6E07
:10034000FD50ED6EEF860600120006001200136AE3
:10035000AFEF01F012001368AFEF01F0120012903E
:10036000030E11D81450E15CED6EFE50ED6EFD50A1
:10037000ED6EEF96EFA8EF9A13B0EF8A1200000E21
:10038000C3EF01F012001524E96EEA6A1200D9CF1A
:10039000E6FFE1CFD9FFE652DF6AD950FD0FE96EE3
:1003A000FF0EDA20EA6EEE50ED1002E0010EDF6E75
:1003B000E6DFEF9AEF98DFA01ED0D950FD0FE96E6F
:1003C000FF0EDA20EA6EEE1EED1EFD0EDB2AFE0E9B
:1003D00001E3DB2A15C0E9FF16C0EAFF040EE92697
:1003E000000EEA22FD0EDBCFEEFFFE0EDBCFEDFFAF
:1003F000C6DFEF88EF86E552E552E7CFD9FF12005E
:10040000F250C00BF29ED0BEF29C1200E8BEF28EFB
:10041000D0BEE8AC01D0F28C1200129AB0DF1350BB
:1004200002E0EF9809D0EF50100B05E1EF50200BE0
:1004300002E0128A01D006001200126A0C0E156E3C
:10044000000E166E009C069C0C9C1200D9CFE6FF95
:10045000E1CFD9FF020EE1261292000EDE6E000EF1
:10046000DD6E136ADECFE9FFDDCFEAFFEF50400B10
:100470002BE1FE0EDB8CFE0EDB86DECFE9FFDDCF4F
:10048000EAFFEE52FC0EDBCFEEFFFD0EDBCFEDFF01
:10049000DECFE9FFDDCFEAFF040EE926000EEA22F7
:1004A000EE6AED6ADECFE9FFDDCFEAFF030EE92653
:1004B000000EEA22EF6ADECFE9FFDDCFEAFFFE0E93
:1004C000DBCFEFFF12920ED0D9CFE9FFDACFEAFFF0
:1004D000060EEE26000EEF22132A030E135CC2E373
:1004E000128200D0020EE15C02E2E16AE552E16EA6
:1004F000E552E7CFD9FF1200000100B9043F02D056
:10050000054B009906B90A3F02D00B4B06990CB96E
:0A051000103F02D0114B0C991200AD
:06051A002A0EF66E000E31
:10052000F76E000EF86E00010900F550856F0900A6
:10053000F550866F03E1856701D03DD00900F55085
:10054000806F0900F550816F0900F550826F090036
:100550000900F550E96E0900F550EA6E090009003E
:100560000900F550836F0900F550846F09000900F8
:10057000F6CF87F0F7CF88F0F8CF89F080C0F6FF8C
:1005800081C0F7FF82C0F8FF0001835302E184536A
:1005900007E00900F550EE6E8307F8E28407F9D70B
:1005A00087C0F6FF88C0F7FF89C0F8FF0001850704
:0805B000000E865BBFD71200AC
:0805B80015EE00F025EE00F045
:1005C000F86A189C8DEC02F0F1EC02F01CEC00F0E3
:0405D000FBD7120043
:0C05D40000EE00F00F0EEE6AEA62FDD7A8
:0205E000120007
:0205E200120005
:0805E4001F140B0704020100C3
:020000040030CA
:0100010022DC
:010002000DF0
:010003000EEE
:010006008178
:00000001FF
