:10000000000000308A004C28FE0003088301C00075
:100010000408C1000A08C2008A017F08C30004085E
:1000200083120313A1000B198B1E37280B11A00A92
:100030002408BE000830BD00BF01BF0A00308A009E
:100040003E0807395B200A128A11FF0020087F0250
:1000500003182D283F0988052F283F08880403101E
:10006000BF0D2308BE07BD0B1E281F30A0058C1C2A
:100070003F288C100A128A1163260A128A1121085D
:1000800084004308FF004108840042088A004008B9
:100090008300FE0E7E0E0900203084004030562082
:1000A0000A128A11992F04068001840A0406031D8E
:1000B00053286400003482071F3414340B3407348F
:0800C000043402340134003461
:100CB6008301A7013430A6002A132F13341308002A
:100CC60083012A1E6B2EAD0F6B2EAE0F6B2E2A12D2
:100CD6002F1E722EB20F722EB30F722E2F12341ACF
:100CE600B70F0800B80F0800341208008301A201EC
:100CF600A20A22032502031C8F2EB901B90ABA01E2
:100D06000A128A11AA260A128A118A110A128E302A
:100D160084000630DE2F7B2EA40A792E83010B0871
:100D260080398B13080083120313B900A712260813
:100D3600840083130310B9080319A42E00120314A8
:100D46000800001E801E0800A71603140800831260
:100D56000313260884008313801200123A0839040C
:100D660003190800FF30B906BA06B90A0319BA0A08
:100D76002608033E840039088000840A3A08800069
:100D8600260884000016801508008301BB00A71002
:100D96002A30BC00A8013C0884008313001BE82EFF
:100DA6003B17BB153C0A840039088000840A3A08C0
:100DB60080003C08033E84008001840A80013C08D0
:100DC60084003B088000A71008000530BC070330EC
:100DD600A80A2802031CCE2EA714080083011F119F
:100DE6009F111F129F129F14FD30840086300A1235
:100DF6008A11DD2700309F1C01300A128A119626BF
:100E06000A128A11031C182F1E08A5006430B900A7
:100E1600BA010A128A11AA260A128A118A110A121C
:100E2600173084000730DE2FF12E0A128A11FE2FAA
:100E36002130840087300A128A11DD270030061C13
:100E460001300A128A1196260A128A11031C5E2F95
:100E56002830B900BA010A128A11AA260A128A1182
:100E66008A110A12393084000730DE2F06181B2F2C
:100E7600A309A30A4330840087300A128A11DD27AA
:100E86000030061801300A128A1196260A128A11B3
:100E9600031C5E2F2830B900BA010A128A11AA264D
:100EA6000A128A118A110A125B3084000730DE2F7B
:100EB600061C3D2F1B2F0A128A11FE2F7030831637
:100EC60003138F001F3090008312850186010130C5
:100ED6008316850086008312870183168701831295
:100EE600880183168801831289018316890183127A
:100EF6009F0183169F0183129F171F1783169F1347
:100F060003178801880A8901831203131F1481308D
:100F160083168100343083129200F93083169200D2
:100F26008B018B160B178C148312080061270A128B
:100F36008A115B267930B9000630BA0000300A12F1
:100F46008A11C826F130B9000630BA0000300A12FC
:100F56008A11C8261B30B9000730BA0000300A12C1
:100F66008A11C8260A128A11A4010130A3008B1720
:100F7600A80134302602031CC32F2A30A600C52F31
:100F86000530A607260884008313001B801BBB2F91
:100F9600001A801ACF2FBB2F83012608023E840039
:100FA60000088A00603983048403000884038200F1
:100FB6000A140A1C0A10831A2038031B40388301BE
:100FC600A9000408A8002608023E84008313290805
:100FD600800084032808800084038015A91FFE2F43
:100FE6008011001AF72F80120A1CFA2F8016290882
:0A0FF6006039830408008301BB2F5B
:02400E00C420CC
:00000001FF
