:020000040000FA
:04000000F2EF01F02A
:08000800056ED8CF06F0E0CF31
:1000100007F00001E9CF0DF0EACF08F0E1CF09F0D9
:10002000E2CF0AF0D9CF0BF0DACF0CF0F3CF14F017
:10003000F4CF15F0FACF16F000C00FF001C010F0A9
:1000400002C011F003C012F004C013F0F2AA2CEFAA
:1000500000F0F2B461EF00F09DA232EF00F09EB22A
:10006000A5EF00F00FC000F010C001F011C002F0C9
:1000700012C003F013C004F00DC0E9FF08C0EAFF8E
:10008000088E09C0E1FF0AC0E2FF0BC0D9FF0CC017
:10009000DAFF14C0F3FF15C0F4FF16C0FAFF0550D5
:1000A00007C0E0FF06C0D8FF1000F76ABA0FF66E6F
:1000B000000EF7220900F55012001F140B0704026E
:1000C0000100302A2EC03DF0080E3F6E010E3E6E3C
:1000D0003D50070B036AF2CF41F0F29EE6DF41BECE
:1000E000F28E016E3050015C05E23E50FF0A821430
:1000F0008B6E03D082503E108B6ED8903E362F50C0
:100100003D263F2EE5D71F0E3016F29432EF00F059
:100110001EA807D0212AD8B4222A2150221001E19A
:100120001E9823A807D0262AD8B4272A265027109D
:1001300001E1239828A807D02B2AD8B42C2A2B50C9
:100140002C1001E12898A6EF00F0E2D79E9232EF42
:1001500000F0926A896A936A8A6A010E926E936EBF
:10016000F19E8B6A000E946EC19CC29CC28EC19E91
:10017000C280C190C182C184C186C10ED56E200EDD
:100180000509CA6EF90ECB6EC00EF212F28A9D827C
:10019000FEEF01F01C50016E020E0124E96E000E0C
:1001A0001D20EA6EFECFEDFFFDCFEDFF1B860600A2
:1001B000000C06001CEF01F006001890020E1C2433
:1001C000E96E000E1D20EA6EFECFEDFFFDCFEDFFC4
:1001D0001B960600000C196AEFDF000CFF0E196E6B
:1001E000EBDF1EEF01F0189A1CC0E9FF1DC0EAFF0B
:1001F000345203E01B98EF9807D01BB804D01BAA19
:1002000002D0188A01D00600000C1C50E96E1DC0F7
:10021000EAFFEECF1BF0EECFE8FFEECFFAFFF96E6C
:10022000000C336A180EE96E33C0EAFFEF6A196AF0
:1002300019A007D0AFDFBDD7CEDFD0D7346AD3DF68
:10024000E4DF336A1E0E326E0A0E3224016E000E97
:10025000332001C01CF01D6E1E9C239C289CFFEFC8
:1002600001F01B9A1B981CC0E9FF1DC0EAFF1BC0D0
:10027000EFFF325033101EE03250FF0A006E335051
:10028000FF0A00C032F0336E322AD8B4332A030E8C
:100290001C24E96E000E1D20EA6E33C0ECFFED5207
:1002A00032C0EFFF1B881B861CC0E9FF1DC0EAFFA0
:1002B0001BC0EFFF000C316A3150312A2D5C07E37F
:1002C000336A010E326ECDDF65DF0000F5D72E2ACE
:1002D000F2D702EF02F0000E016EC250C70B011000
:1002E000C26EC284C2B4FED7C4CF2DF0336A640E8E
:1002F000326EB7DF4FDF0000EED705EF02F06BDFA5
:1003000000009380000E81A0010E346E6CDF336A12
:10031000280E326EA6DF3EDF0000938081B0EFD75B
:100320002F6C59DF00009380000E81B0010E346EF7
:100330005ADF336A280E326E94DF2CDF0000938080
:1003400081A0EFD7DCD708EF02F01892346A3A6A3E
:100350001E0E3AC038F0376E196A37C0E9FF38C050
:10036000EAFFEFBC35D03A6A340EE96E3AC0EAFFD4
:10037000EF8C3A6A340EE96E3AC0EAFFEF86010E5E
:100380003724E96E000E3820EA6E36C0ECFFED52DD
:1003900035C0EFFF030E3724E96E000E3820EA6EF9
:1003A000EC6AED52EF6A37C0E9FF38C0EAFF34C0AB
:1003B000EFFF1C50375C0AE11D50385C07E13A6AD8
:1003C0001B0EE96E3AC0EAFF34C0EFFF189209D065
:1003D000050E3726D8B0382A192A19500208BDE26E
:1003E0001882000CF86AD09E088EEA6AE96AC18019
:1003F000C182C184C196306A316AABD612D7F9A0E6
:1004000001D059D7F9A001D066D7F9A001D077D78C
:10041000020E036EB60E03C033F0346A03C036F02A
:10042000356E93DF020E036ED60E03C033F0346ACE
:1004300003C036F0356E89DF020E036EFE0E03C078
:1004400033F0346A03C036F0356E7FDF2E6A010E5A
:100450002F6EF28ED0AE01D0F28C196A336A1E0E66
:10046000326E0A0E3224016E000E3320036E0350EA
:100470001D5C0AE303E101501C5C06E3336A1E0EB7
:1004800033C01DF01C6E04D0050E1C26D8B01D2AEA
:100490001CC0E9FF1DC0EAFFEFCF1BF01BAC01D071
:1004A0001BBE12D01BA802D01BAA0ED0AEDE1CC0F1
:1004B00001F01DC003F01CC0E9FF1DC0EAFFD70E0C
:0C04C000EF161B50280BEF12C8D70300EA
:020000040030CA
:0E00000000220C0E000081000FC00FE00F4028
:00000001FF
;PIC18F258
;CRC=B1A3  CREATED="19-фев-10 15:25"
