:1000000000308A00102A0000FF00030E8301A100C7
:100010000A08A0008A010408A2007708A300780853
:10002000A4007908A5007A08A6007B08A70083131E
:1000300083128C308400801C1F288C1836288B1E5D
:1000400023280B193928220884002308F7002408E4
:10005000F8002508F9002608FA002708FB00200808
:100060008A00210E8300FF0E7F0E09008A110A12FA
:100070006F288A110A1248280A108A100A1182076A
:100080001F3414340B340734043402340134003484
:10009000C20A3F08CD000830CF000130CE004D0825
:1000A00007393C20F8004208780203185F28080846
:1000B000D0004E08FF3A0805D100880063280808E0
:1000C0004E04D10088000310CE0D4008CD07CF0BA1
:1000D0004F281F30C2050B118A110A1223282F1E28
:1000E0007828B20A0319B30A3208330403192F120D
:1000F000341E8128B70A0319B80A370838040319CF
:100100003412391E8A28BC0A0319BD0A3C083D0472
:10011000031939128C108A110A12232871308316A0
:100120008F001F3090000F08850183128501860122
:10013000013083168500860000308312C1008316CB
:10014000870183128701831687008312C10088010B
:1001500083168800091089100911831289018316FA
:1001600009108910091183121F139F1783169F13FB
:1001700083121F14831603170908C039890003135B
:100180001F129F1201300317880003130108C039A2
:10019000013881002030F800053883129200F930D0
:1001A0008316920083128B1683168C14C030831230
:1001B0008B048A110A12292A2D08840083132E1811
:1001C000831700342A10DC200230840729088000BD
:1001D0008403280880008403C4080319F0288011D0
:1001E0000034AA12DC20C6080319FA2800120130D4
:1001F000F8000429001A0229801E0229AA160130DB
:10020000F80004290030F8000034DC2002308407B4
:1002100000088A0084030008840382000034C501BA
:100220002A30C400440884008313451883178001D2
:10023000AB012B1C2029C401E220C601F1200521BD
:10024000C5012F30C4000A304407F8004508FA0001
:100250000318FA0A7808AD007A08AE002F13341399
:1002600039138A110A122A2ADC208012001244084B
:100270004504031957294408FF3AF7004508FF3A97
:10028000FA007708C4007A08C500C40A0319C50A31
:1002900003302D07840083132E188317840A450822
:1002A0008000840344088000DC20001680150034A0
:1002B000C3014308C30A3E02031C6C29C501013077
:1002C000C40034210130FA006B30A8007A08A9007C
:1002D000C401E22008005929BF0A58298A110A12CC
:1002E0002D2A0030F8001F08C33978049F009F149E
:1002F0009F1878291E08BE00C5016430C40034214F
:100300000130FA008930A8007A08A900C401E2206F
:10031000080071298A110A12302A0130FA00963039
:10032000A8007A08A9000130C400E2200030061CB1
:100330000130C500C600F120F80803190800C50106
:100340002830C40034210130FA00AC30A8007A080B
:10035000A900C401E220080006188D29C009C00ABE
:100360000130FA00B930A8007A08A9000130C400B1
:10037000E220003006180130C500C600F120F80860
:1003800003190800C5012830C40034210130FA00E7
:10039000CF30A8007A08A900C401E2200800061C9A
:1003A000B0298D298A110A12332AAA10C601CC015C
:1003B0002F30CB004C08CA004B08C9000330AB00FB
:1003C0004908840083134A188317001B082A46171C
:1003D000C61501304907840083134A188317840A1D
:1003E00048088000840347088000033049078400E0
:1003F00083134A188317840A800184038001490803
:10040000840083134A18831746088000AA100F2A15
:100410000530C9070318CA0AAB0BE029AA14003437
:10042000840183131F308305831603170908C0391D
:10043000890003131F129F120030031788008312D4
:10044000870188018901FF300313C100C201C30184
:100450008E280F298A1F2D2A58298A1F302A712990
:100460008A1F332A8D290130FA005830C4007A08D7
:10047000C500C6017A08C8004408C700D52101306C
:10048000FA007130C4007A08C500C6017A08C800B5
:100490004408C700D5210130FA008D30C4007A0825
:1004A000C500C6017A08C8004408C700D521BF01AD
:1004B0000130C0008B17AB01C5012F30C4000A30DA
:1004C0004407F8004508FA000318FA0A7A082E02D1
:1004D000031C782A031D702A78082D02031C782A31
:1004E000C5012F30C4004508AE004408AD007C2A89
:1004F0000530AD070318AE0ADC20001F802A801BE0
:10050000872A001E852A801E872A052183015B2AEF
:02051000630086
:04400E00C520FF3F8B
:00000001FF
;PIC16F887
;CRC=E6CD  CREATED="14-дек-09 18:46"
